:100000000C944E030C9412170C94EB160C943718A6
:100010000C9437180C9437180C9439170C947603F9
:100020000C9476030C9476030C9476030C9476036C
:100030000C9476030C9476030C9476030C9476035C
:100040000C94A1160C9476030C9456150C94301550
:100050000C9476030C9476030C9476030C9476033C
:100060000C94E41B0C94760300407A10F35A00A021
:10007000724E18090010A5D4E80000E87648170071
:1000800000E40B54020000CA9A3B000000E1F505B1
:10009000000080969800000040420F000000A086FB
:1000A00001000000102700000000E803000000002D
:1000B0006400000000000A000000000001000000D1
:1000C00000002C76D888DC674F0823DFC1DFAE59EB
:1000D000E1B1B796E5E3E453C63AE651997696E87E
:1000E000E6C28426EB898C9B62ED407C6FFCEFBC02
:1000F0009C9F40F2BAA56FA5F490055A2AF75C932D
:100100006B6CF9676DC11BFCE0E40D47FEF520E662
:10011000B500D0ED902E0300943577050080841E45
:10012000080000204E0A000000C80C333333330FA0
:10013000986E12831141EF8D2114893BE65516CF3D
:10014000FEE6DB18D1844B381BF77C1D901DA4BB49
:10015000E424203284725E228100C9F124ECA1E5FE
:100160003D27AE2000C840817FA1A6A83FD300D57F
:1001700080D922DA12DB208D14A4AF300030003099
:1001800000000608200000000000000000002F0012
:100190000000000700070000147F147F1400242AC9
:1001A0007F2A12002313086462003649552250004A
:1001B000000503000000001C224100000041221C39
:1001C000000014083E08140008083E08080000005B
:1001D000A060000008080808080000606000000037
:1001E0002010080402003E5149453E0000427F4075
:1001F00000004261514946002141454B310018142D
:10020000127F10002745454539003C4A49493000D6
:100210000171090503003649494936000649492953
:100220001E0000363600000000563600000008149C
:100230002241000014141414140000412214080078
:10024000020151090600324959513E007C12111237
:100250007C007F49494936003E41414122007F41AF
:1002600041221C007F49494941007F0909090100D9
:100270003E4149497A007F0808087F0000417F41DC
:1002800000002040413F01007F08142241007F40D0
:10029000404040007F020C027F007F0408107F0076
:1002A0003E4141413E007F09090906003E4151217E
:1002B0005E007F091929460046494949310001017C
:1002C0007F0101003F4040403F001F2040201F00B1
:1002D0003F4038403F00631408146300070870086B
:1002E0000700615149454300007F41410000552A04
:1002F000552A55000041417F00000402010204001C
:10030000404040404000000102040000205454548A
:1003100078007F484444380038444444200038443E
:1003200044487F00385454541800087E09010200E4
:1003300018A4A4A47C007F080404780000447D4035
:1003400000004080847D00007F10284400000041B0
:100350007F4000007C04180478007C0804047800C6
:10036000384444443800FC24242418001824241859
:10037000FC007C0804040800485454542000043F46
:10038000444020003C4040207C001C2040201C00B9
:100390003C4030403C004428102844001CA0A0A051
:1003A0007C004464544C44000008770000000000C6
:1003B0007F000000007708000000100810080014FB
:1003C00014141414140030003000300000141830DD
:1003D00000FEFFFFFFFF0F0F0F0F0F0F0F0F0FFF9D
:1003E000FFFFFFFE00FFFFFFFFFF00000000000017
:1003F000000000FFFFFFFFFF007FFFFFFFFFF0F0A7
:10040000F0F0F0F0F0F0F0FFFFFFFF7F00000000E1
:10041000000000203CFFFFFFFFFF00000000000085
:10042000000000000000000000FFFFFFFFFF0000D1
:1004300000000000000000000000000000FFFFFFBF
:10044000FFFF0000000000000000FEFFFFFFFF0FA5
:100450000F0F0F0F0F0F0FFFFFFFFFFE0000000039
:1004600000000080C0E0F0F8FC7E3F1F0F07030192
:1004700000E0F0F8FCFEFFFFFFF7F3F1F0F0F0F022
:10048000F0F0F0F000FEFFFFFFFF0F0F0F0F0F0F58
:100490000F0F0FFFFFFFFFFE000000000000000035
:1004A000081C1C3E3E7E7FF7F7F7E3E3007FFFFF6B
:1004B000FFFFF0F0F0F0F0F0F0F0F0FFFFFFFF7F53
:1004C00000000000000080E0F0FCFF7F1F0F030130
:1004D000000000000080C0F0FCFEFF3F0F030100A1
:1004E0000000FFFFFFFF0000000F0F0F0F0F0F0FA7
:1004F0000F0F0F0F0F0FFFFFFFFF0F0F00FFFFFF8B
:10050000FFFF0F0F0F0F0F0F0F0F0F0F0F0F0F0F1B
:10051000001F1F1F1F1F1E1E1E1E1E1E1E1E1EFE34
:10052000FEFEFEFC007FFFFFFFFFF0F0F0F0F0F0BA
:10053000F0F0F0FFFFFFFF7F00FEFFFFFFFF0F0F58
:100540000F0F0F0F0F0F0F7F7F7F7F7E00FFFFFFCB
:10055000FFFF3C3C3C3C3C3C3C3C3CFCFCFCFCF899
:10056000007FFFFFFFFFF0F0F0F0F0F0F0F0F0FFA1
:10057000FFFFFF7F007F7F7F7F7F0F0F0F0F0F0F2A
:100580000F0FCFFFFFFFFF1F000000000000000063
:10059000000080F0FCFFFF3F0F03000000000000A0
:1005A000000080E0F8FEFFFF1F07010000000000D0
:1005B00000FEFFFFFFFF0F0F0F0F0F0F0F0F0FFFBB
:1005C000FFFFFFFE00C3E7E7F7FF7E3E3E3C1C3C1B
:1005D0003E3E7EFFF7E7E7C3007FFFFFFFFFF0F03F
:1005E000F0F0F0F0F0F0F0FFFFFFFF7F00FEFFFF04
:1005F000FFFF0F0F0F0F0F0F0F0F0FFFFFFFFFFE7C
:10060000001F3F3F3F3F3C3C3C3C3C3C3C3C3CFFB4
:10061000FFFFFFFF007EFEFEFEFEF0F0F0F0F0F0C8
:10062000F0F0F0FFFFFFFF7F00F8F80000C3C30009
:10063000001F1F0000000000240027002A00000007
:10064000000900030200000405080000000000008B
:10065000000000000000000000250028002B000022
:1006600000000023002600290004040404040404FC
:100670000402020202020203030303030302020351
:100680000102040810204080010204081020010229
:100690000408102040804000F432EA3211241FBECA
:1006A000CFEFD8E0DEBFCDBF12E0A0E0B1E0E4E2E2
:1006B000F9E702C005900D92AA3AB107D9F726E0F2
:1006C000AAEAB2E001C01D92AC31B207E1F713E033
:1006D000CDE4D3E004C02197FE010E94643ACC34FB
:1006E000D107C9F70E945C210C94853C0C94000052
:1006F00081E0809327018FEF0E948A1E8FEF0E9476
:10070000841E8FEF0E947E1E8FEF809318018093CE
:100710001701809326010E94951660938B037093B6
:100720008C0380938D0390938E030895E8988AEF4D
:1007300092E190933901809338010E941F1E892B0A
:1007400031F580912501882399F0809123019091C2
:1007500024018436910519F084E690E004C080916C
:10076000E1029091E202909324018093230105C05D
:1007700081E0809325018093EC020E94951660939E
:10078000E8027093E9028093EA029093EB0262E33D
:1007900070E080E090E00E945B160E941F1E892B93
:1007A000B1F30C94111E1092250160E08AE00E94C2
:1007B000B1158EEA0C94E819FF920F931F93CF9313
:1007C000DF93F62E8A01FC01448155816091D903A3
:1007D000262F30E00230110519F4220F331F07C015
:1007E0000330110521F4F3E06F9F90011124429F23
:1007F000B001439F700D529F700D112420E830E02E
:10080000261B370B37FF02C02F5F3F4F35952795CB
:10081000E9012197BA016F5F7F4F0E94480F0130B5
:10082000110511F440E006C00230110511F441E059
:1008300001C042E06F2D8C2FDF91CF911F910F915E
:10084000FF900C94F10DCF92DF92EF92FF920F93F5
:100850001F93CF93DF93CDB7DEB7A4970FB6F8946D
:10086000DEBF0FBECDBF87EBC82E82E0D82ED601EB
:100870008C91B0E88B9FC0011124F6013181382B97
:1008800030838281F0E88F9FC0011124D601139636
:100890002C911397282B12962C93129714968C91C7
:1008A000B0E88B9FC0011124F6019581892B8483C8
:1008B000309337012093360180933501E681F0E0D3
:1008C000EE0FFF1FEC59FE4F60816093B502D60119
:1008D0001796EC911797F0E0EE0FFF1FEE5AFE4FC0
:1008E000208131813093B3022093B2021896EC91AB
:1008F0001897F0E0EE0FFF1FE65BFE4F00811181BD
:100900001093B1020093B0021996EC91F0E0EE0F53
:10091000FF1FEE5BFE4FE080F180F092AF02E092AD
:10092000AE024091B4028091B6020E94C10CF60161
:1009300080810E948A1ED60112968C910E94841E8C
:10094000F60184810E947E1E4AE0D60114966C91C5
:10095000CE0143960E94D4144AE0F6016281CE0192
:100960000D960E94D4144AE0D6016C91CE010796F0
:100970000E94D41461E272E0CE0101960E941B1520
:10098000BE01695F7F4FCE0101960E94461469EE59
:1009900071E00E942D14BE01635F7F4F0E944614D8
:1009A00069EE71E00E942D14BE016D5E7F4F0E94C2
:1009B000461468EE71E00E942D14BC01CE014996E8
:1009C0000E94011541E050E060E270E0CE014996DE
:1009D0000E94DC03CE0149960E94CF14CE010196FD
:1009E0000E94CF14CE0107960E94CF14CE010D961F
:1009F0000E94CF14CE0143960E94CF144AE0F60124
:100A00006185CE0149960E94D4144AE0D601189619
:100A10006C91CE0143960E94D4144AE0F60167819E
:100A2000CE010D960E94D4144AE0D60116966C9120
:100A3000CE0107960E94D41468EE71E0CE010196B3
:100A40000E941B15BE01695F7F4FCE0101960E9477
:100A5000461469EE71E00E942D14BE01635F7F4F62
:100A60000E94461469EE71E00E942D14BE016D5E75
:100A70007F4F0E94461469EE71E00E942D14BE0162
:100A8000675E7F4F0E94461468EE71E00E942D144D
:100A9000BC01CE014F960E94011541E050E068E292
:100AA00070E0CE014F960E94DC03CE014F960E946B
:100AB000CF14CE0101960E94CF14CE0107960E945A
:100AC000CF14CE010D960E94CF14CE0143960E9402
:100AD000CF14CE0149960E94CF14A4960FB6F89475
:100AE000DEBF0FBECDBFDF91CF911F910F91FF9061
:100AF000EF90DF90CF90089586E00E941D16883514
:100B00009240D4F386E00E941D1681329340D4F7C0
:100B10000895CF93DF93C4E0D0E086E00E941D16D5
:100B200061E070E080E090E00E945B162197A9F7F9
:100B300086E00E941D16813223E092076CF00E942D
:100B400095166093E8027093E9028093EA0290930D
:100B5000EB0282E090E012C0883592406CF40E9473
:100B600095166093E8027093E9028093EA029093ED
:100B7000EB0281E090E002C080E090E0DF91CF9155
:100B80000895CF93DF936FE680EC95E00E94751D8A
:100B900060E080EC95E00E943B1980EC95E00E94BB
:100BA0006E1D47E050E06FE670E080EC95E00E943B
:100BB000BC1DC1ECD2E080EC95E00E94E218899364
:100BC00022E0C83CD207B9F78091C302982F9695CE
:100BD000969596959670292F220F220F920F8F705F
:100BE000890F8093CA028091C202982F969596959C
:100BF00096959E70292F220F220F920F8F70890FCA
:100C00008093C9028091C102982F969596959695EA
:100C10009E70292F220F220F920F8F70890F8093C1
:100C2000C8028091C502982F9695969596959670D4
:100C3000292F220F220F920F8F70890F809391031B
:100C40008091C602982F9695969596959670292F25
:100C5000220F220F920F8F70890F80939003809143
:100C6000C702982F92959F708F702AE0929F800DF7
:100C7000112480938F03DF91CF910895EF92FF921B
:100C80000F931F93E090AE02F090AF020091B0027C
:100C90001091B1022091B2023091B3024091B4029E
:100CA0006091B50280E00E94C10C80E00E94841E29
:100CB00080E00E948A1E80E00E947E1E40E86FE76E
:100CC00089E01F910F91FF90EF900C945420EF92C8
:100CD000FF920F931F9340E06FE789E00E9454203A
:100CE000E090AE02F090AF020091B0021091B1021C
:100CF0002091B2023091B3024091B4026091B502EA
:100D00008091B6020E94C10C809137010E948A1E18
:100D1000809136010E94841E809135011F910F91B0
:100D2000FF90EF900C947E1ECF92DF92EF92FF9295
:100D30006B017C0120E030E040E053E40E94DE39AA
:100D400018168CF020E030E040E053ECC701B6010B
:100D50000E940B3787FD09C0C701B6010E94AF3959
:100D600080E8860F03C08FEF01C080E0FF90EF9016
:100D7000DF90CF9008958EBD00000DB407FEFDCF2B
:100D80008EB50895CF93C82F60E081E10E94B11520
:100D900088E28A95F1F78C2F80680E94BB068FEF5E
:100DA0000E94BB06C82F61E081E10E94B1158C2F23
:100DB000CF9108950F931F93CF9387E30E94C206AC
:100DC000C82F88E30E94C206182F89E30E94C2063A
:100DD0004C2F50E060E070E0762F652F542F4427B1
:100DE000410F511D611D711D762F652F542F442712
:100DF000480F511D611D711D4093DC025093DD02AF
:100E00006093DE027093DF020E94251F809122050D
:100E100090E0FC01EE0FFF1FEE0FFF1FEF50FB4FA6
:100E200040815181628173814093D8025093D902ED
:100E30006093DA027093DB02FC01EE0FFF1FEE0FEE
:100E4000FF1FEF5FFA4F40815181628173814093B0
:100E5000D4025093D5026093D6027093D702880FC4
:100E6000991F880F991FFC01EF5EFA4F80819181D5
:100E7000A281B3818093D0029093D102A093D20239
:100E8000B093D3020E94901E8091D8029091D90213
:100E9000A091DA02B091DB0281372FEF920723E0B5
:100EA000A207B10530F0809117018550809317019A
:100EB0000EC080349D40A340B10558F480911701C5
:100EC000843618F48B5F80931701809118010E947B
:100ED0008A1E8091D4029091D502A091D602B09141
:100EE000D70281379F4FA340B10530F080911801A0
:100EF00085508093180116C08091D8029091D90234
:100F0000A091DA02B091DB0280349D40A340B1058C
:100F100058F480911801843618F48B5F809318017F
:100F2000809118010E94841E8091D0029091D1027C
:100F3000A091D202B091D30281372FEF920723E024
:100F4000A207B10530F080912601855080932601DB
:100F500018C080342DE0920723E0A207B10598F471
:100F600020911701243658F40596A11DB11D8093D8
:100F7000D0029093D102A093D202B093D302809179
:100F800026010E947E1E809127018823B9F00E94CD
:100F9000951600918B0310918C0320918D03309155
:100FA0008E03DC01CB01801B910BA20BB30B8132B2
:100FB0009E44A105B10510F010922701CF911F9119
:100FC0000F910895CF93DF93D82FC62F60E081E172
:100FD0000E94B11588E28A95F1F78D2F0E94BB0619
:100FE0008C2F0E94BB06C82F61E081E10E94B115E1
:100FF0008FE295E70197F1F700C000008C2FDF9199
:10100000CF9108958F929F92AF92BF92CF92DF922D
:10101000EF92FF9280912301909124012091280169
:10102000309129018217930709F4E2C190932901B5
:10103000809328010E94B01B80912301909124018C
:101040008436910571F40E943E0662E080E00E94C1
:10105000E20780912501882309F456C10E949F0F61
:1010600053C18130910559F580912501882301F103
:1010700021E030E044E252E060E088E20E94DF1AC2
:1010800020E030E04DE252E068E28CE10E94DF1A9D
:1010900020E030E04AE352E060E389E10E94DF1A99
:1010A00020E030E048E452E068E180E00E94DF1A8E
:1010B0000E94670661E080E00E94E20725C182305D
:1010C000910571F580912501882309F41DC121E066
:1010D00030E04EE452E060E08EE20E94DF1A20E051
:1010E00030E045E552E060E082E60E94DF1A20E051
:1010F00030E04BE552E068E180E00E94DF1A20E03A
:1011000030E04BEC51E060E28FE10E94DF1A20E01A
:1011100030E04DE552E068E38BE50E94DF1AF4C051
:10112000089709F0F1C021E030E044E652E060E0C9
:1011300086E10E94DF1A20E030E04BE552E068E1F2
:1011400080E00E94DF1A0E9478100E942610811110
:10115000FCCF6AE070E080E090E00E945B16C12C5A
:10116000D12C7601812C8CE4982E8DE1A82EB12C07
:1011700061E088ED0E943C108E2D0E94BB0680E04D
:101180000E94BB0680E00E94BB060E940A100E94DB
:1011900026108111FCCFAFE7B0E0A70196010E94B5
:1011A0005638A50194010E943738822F60E30E94CF
:1011B000921A2FEFE21AF20AC114D1048EE1E80666
:1011C000F104B1F61092CB021092CC021092CD0233
:1011D0001092CE021092CF020E9478100E94261028
:1011E0008111FCCF9FB7F89480913D04882319F0BA
:1011F000815080933D0480913D04811105C08CB5E0
:101200008F7B8CBD1092B2039FBF0E94261081116C
:10121000FCCF0E947F100E9426108111FCCF6AE053
:1012200070E080E090E00E945B164091CA0261E0AD
:1012300070E080E090E00E9453100E94261081111F
:10124000FCCF4091C90262E070E080E090E00E9433
:1012500053100E9426108111FCCF4091C80263E018
:1012600070E080E090E00E9453100E9426108111EF
:10127000FCCF40918F0364E070E080E090E00E943A
:1012800053100E9426108111FCCF4091900365E01D
:1012900070E080E090E00E9453100E9426108111BF
:1012A000FCCF4091910366E070E080E090E00E9406
:1012B00053100E9426108111FCCF0E94780380E217
:1012C00090E0A0E0B0E08093CB029093CC02A0939A
:1012D000CD02B093CE028091190190911A01803A0B
:1012E0009F4031F40E94670661E080E00E94E207BF
:1012F00084EF91E00E94FE1D85E090E09093240130
:10130000809323010E94B01B8091230190912401BE
:1013100085309105D1F480912501882309F468C0B6
:1013200021E030E043E752E060E085E20E94DF1A0E
:1013300020E030E04DE752E068E28BE20E94DF1AE5
:1013400020E030E048E452E047C08630910551F596
:10135000809125018823C1F021E030E043E752E08D
:1013600060E085E20E94DF1A21E030E045E852E0CB
:1013700060E184E30E94DF1A20E030E04BE552E0B8
:1013800068E180E00E94DF1A0E943E0662E080E091
:10139000FF90EF90DF90CF90BF90AF909F908F9095
:1013A0000C94E207079721F580912501882301F12C
:1013B00021E030E04AE852E060E08FE10E94DF1A6D
:1013C00020E030E046E952E060E286E10E94DF1A68
:1013D00020E030E04BE552E068E180E0FF90EF90E4
:1013E000DF90CF90BF90AF909F908F900C94DF1ABA
:1013F000FF90EF90DF90CF90BF90AF909F908F9035
:1014000008951092EC0281E0809325010E949516C8
:101410006093E8027093E9028093EA029093EB02F2
:101420008FEA0E94E81988EC90E09093290180935C
:1014300028010C940208EF92FF920F931F93CF9311
:10144000DF9383E295E00E945012181619060CF003
:1014500070C183E295E00E942E12823551F4809192
:10146000230190912401019709F463C181E090E088
:1014700004C0803559F484E690E090932401809371
:1014800023010E94010A0E94020853C1813419F409
:101490000E9478034EC1853469F4CAE2D1E083E248
:1014A00095E00E942E128053899331E0C533D30713
:1014B000B1F73FC18335C1F4C7EBD2E083E295E0D9
:1014C0000E945012892BD1F383E295E00E942E12E4
:1014D000899352E0C13CD50789F782E390E00E94EE
:1014E000FE1D0E94230425C1883709F0B0C082E3A5
:1014F00090E00E94FE1D6AE070E080E090E00E94B3
:101500005B160E9478100E9426108111FCCF61E0CA
:1015100070E080E090E00E94FD20E82E62E070E044
:1015200080E090E00E94FD20F82E63E070E080E013
:1015300090E00E94FD20082F64E070E080E090E0E1
:101540000E94FD20182F65E070E080E090E00E948E
:10155000FD20D82F66E070E080E090E00E94FD2042
:10156000C82F62E370E080E090E00E945B1665E5C2
:1015700083E295E00E9487120E9426108111FCCF21
:101580006E2D83E295E00E9487120E942610811141
:10159000FCCF6F2D83E295E00E9487120E942610F7
:1015A0008111FCCF602F83E295E00E9487120E9498
:1015B00026108111FCCF612F83E295E00E948712F3
:1015C0000E9426108111FCCF6D2F83E295E00E94CE
:1015D00087120E9426108111FCCF6C2F83E295E0C8
:1015E0000E9487120E9426108111FCCFC9E1D0E031
:1015F00065E583E295E00E9487122197C9F764E6CA
:1016000070E080E090E00E945B16C7E0D0E0D093ED
:101610002401C093230180E491E0A0E0B0E0809336
:101620001B0190931C01A0931D01B0931E010E9409
:10163000010AD0932401C093230188EC90E0909399
:1016400029018093280181E0809325011CCF8336F6
:1016500021F481E08093E0026CC0843709F069C016
:101660000E948420C62F0E948420D62F0E948420AE
:10167000162F0E948420062F0E948420F62E0E949E
:101680008420862F4AE0642F0E94303A50E1859FE3
:1016900090011124292B20682093C1028F2D0E94D4
:1016A000303A50E1859F90011124292B2093C202EA
:1016B000802F0E94303A50E1859F90011124292B00
:1016C0002093C30281E08093C402812F0E94303AAC
:1016D00050E1859F90011124292B2093C5028D2F65
:1016E0000E94303A50E1859F90011124292B2093CC
:1016F000C6028C2F0E94303A292F30E1839FC0010F
:101700001124822B8093C7026FE680EC95E00E9443
:10171000751D80E090E00E94431E47E050E061ECC0
:1017200072E080EC95E00E94FE1880EC95E00E944B
:101730006E1D88ED95E00E946813181619060CF0CE
:101740005DC088ED95E00E948013823749F5809155
:10175000E70281110DC081E08093E70282E390E00F
:101760000E94FE1D60ED77E080E090E00E945B1635
:101770000E9495166093E3027093E4028093E50261
:101780009093E60281E090E09093240180932301FE
:10179000DF91CF911F910F91FF90EF900C94020871
:1017A000803719F41092E70229C08335C9F4C7EBDA
:1017B000D2E088ED95E00E946813892BD1F388ED83
:1017C00095E00E948013899352E0C13CD50789F7C8
:1017D000DF91CF911F910F91FF90EF900C94230414
:1017E000853461F4CBE0D1E088ED95E00E94801370
:1017F0008053899381E0C631D807B1F7DF91CF914B
:101800001F910F91FF90EF9008950E94951660939D
:10181000E8027093E9028093EA029093EB0221E0E0
:1018200030E045EA52E060E384E30E94DF1A84EF8F
:1018300091E00E94FE1D68EC70E080E090E00E9464
:101840005B1684EF91E00E94FE1D60ED77E080E082
:1018500090E00E945B1684E690E0909324018093D0
:1018600023010C9402081F93CF93DF93C82F162FE8
:10187000462F50E044505109869586958695682FED
:1018800070E0E091E503F091E60385E090E00995D2
:10189000C770D1E001C0DD0FCA95EAF7C5E01C179B
:1018A00050F08091CD03E091E903F091EA038D2798
:1018B0000995CF5FF4CFE091D103F091D203DF918E
:1018C000CF911F9109948CB58093D4058DB58093E9
:1018D000D5052091D6059091D7058091B203882334
:1018E00079F08FB7F8943091B203313039F43DB3C9
:1018F0003093F3033DB33DBB8FBF02C08093F3032E
:101900002CBD9DBD60E08091D1050C94B1159091E6
:10191000B603891304C09FEF9093CD0302C01092C9
:10192000CD0390E09C01220F331FE091B303F091AF
:10193000B403E20FF31F408151812091B803821B51
:101940009109BC016F5F7F4F660F660F660F20E045
:1019500030E088E00E94DF1A1092CD0308950097CE
:1019600069F0FC0101900020E9F73197AF01481BB5
:10197000590BBC0183E295E00C94031280E090E0E7
:1019800008954F925F926F927F92BF92CF92DF92B3
:10199000EF92FF920F931F93CF93DF93B82ED62E23
:1019A000C42EE90140E46FEB89E00E9454200E94BC
:1019B00095162B013C010E949516DC01CB01841980
:1019C0009509A609B70984369105A105B10538F432
:1019D00069E08091CE050E94E21E86FD05C081E08F
:1019E000D81209C080E01FC061E070E080E090E0A4
:1019F0000E945B16E0CF82E0D81202C080E213C0E2
:101A000084E0D81202C080E40EC088E0D81202C080
:101A100080E609C080E1D81202C080E804C080E2FC
:101A2000D812F1CF80EA0E947F2040E16FEE88E07B
:101A30000E94542083E0C81202C047E006C082E042
:101A4000C81202C043E001C042E068EF89E00E9492
:101A50005420C092CF05E11480E1F80614F480E030
:101A600011C0E11480E2F80614F480E20BC0E11426
:101A700080E4F80614F480E405C0E11480E4F8067C
:101A800071F780E60E947A20C436D10514F480E014
:101A900027C0C83CD10514F484E022C0C03981E0DD
:101AA000D80714F488E01CC0C03283E0D80714F4CF
:101AB0008CE016C0C83E83E0D80714F480E110C063
:101AC000C03486E0D80714F484E10AC0C0388CE042
:101AD000D80714F488E104C0C038DC40C1F68CE1BA
:101AE0000E9475200637110514F480E00FC0073DF1
:101AF000110514F481E00AC00B3981E0180714F4D1
:101B000082E004C00B39114081F783E00E9470200D
:101B10008B2D0E948A1E8B2D0E94841E8B2D0E946D
:101B20007E1E4B2D60E18091CE050E94481E41E053
:101B300068EF81E10E94542081E08C1568F440E256
:101B40006FE881E10E94542082E0C81629F043E04A
:101B500068EF82E10E94542040E064E08091CE056D
:101B60000E94481E40E065E08091CE050E94481E1C
:101B700040E066E08091CE05DF91CF911F910F91FB
:101B8000FF90EF90DF90CF90BF907F906F905F902D
:101B90004F900C94481E1092A9041092A804109221
:101BA000F2031092F1031092F00481E08093EF04AD
:101BB0001092EA0461E082E10E94B11561E083E1E4
:101BC0000E94B115E9EBF0E080818E7F80838081F7
:101BD0008D7F808384E38093B80085E48093BC008C
:101BE00008952F923F924F925F926F927F928F92C1
:101BF0009F92AF92BF92CF92DF92EF92FF920F939C
:101C00001F93CF93DF93CDB7DEB72B970FB6F89422
:101C1000DEBF0FBECDBF982E842E66956695669565
:101C20006B87C82ED12C4091E1035091E2034C19EF
:101C30005D0970E0E091E503F091E603C6010995C6
:101C4000082D10E021E030E07901082C02C0EE0CF4
:101C5000FF1C0A94E2F78FEF90E00E2C01C0880F72
:101C60000A94EAF78095A701415051095C834B83A0
:101C700043E050E0BA01601B710B7A83698329014C
:101C8000098002C0440C551C0A94E2F7692CF12C1F
:101C9000712C1A86282F30E038872F83462D50E08C
:101CA0008091D90390E0002E02C0880F991F0A94FA
:101CB000E2F72091E1033091E203281B390B24174E
:101CC000350740F03A85E32FF0E0E754FC4F808180
:101CD000811141C02B852F5F2B87A22EB12C8091C3
:101CE000E3039091E40323E0969587952A95E1F725
:101CF000E091D103F091D203A816B90608F0ADC067
:101D0000F3948F2D90E02091DB0330E0002E02C091
:101D1000220F331F0A94E2F78217930759F43A858A
:101D2000A32FB0E0A754BC4F8C91882309F495C031
:101D3000F12C01C07A8609954091E1035091E203AC
:101D40004C195D09E091E503F091E603B501C60188
:101D50000995692C7A842A85E22FF0E0E754FC4F3C
:101D600040818091DC03481708F0481B5091DB0349
:101D70008F2D90E02090D9039C01002E02C0359554
:101D800027950A94E2F7459F200D311D1124229ECC
:101D90005001239EB00C11242B813C81822393237C
:101DA000AC01098002C0440F551F0A94E2F75E831C
:101DB0004D83222009F445C0E091DD03F091DE035C
:101DC000EA0DFB1D3490882041F1432D50E00D8039
:101DD00002C0559547950A94E2F760E0312C5527EB
:101DE000262F30E024153505C4F4CA01062E02C0A2
:101DF000959587950A94E2F780FF0BC0002E01C0ED
:101E0000220F0A94EAF78F8101C0880F2A95EAF71A
:101E100001C080E0382A6F5FE3CF9E2D992361F0E7
:101E20008091CD03E091E903F091EA03832599873E
:101E3000099599859150F2CF5FEFA51AB50A2A94BA
:101E4000B8CF8091D903002E01C0880F0A94EAF719
:101E5000680E2A852F5F2A8721CF09958A852B96C0
:101E60000FB6F894DEBF0FBECDBFDF91CF911F91AB
:101E70000F91FF90EF90DF90CF90BF90AF909F9029
:101E80008F907F906F905F904F903F902F9008952C
:101E9000CF93DF9361157105D1F0FC012481358169
:101EA0002115310519F41092B90311C0EB012197E6
:101EB0002C173D0708F4E901FC0160817181AE0136
:101EC00089EB93E00E94763CC754DC4F1882DF9187
:101ED000CF910895CF92DF92EF92FF920E949516D4
:101EE0006B017C010E949516DC01CB018C199D09C8
:101EF000AE09BF0987399105A105B10558F40E94C3
:101F0000251F019759F061E070E080E090E00E94A9
:101F10005B16E8CF60E070E0CB010CC0E0912105DA
:101F200084E0E89FF0011124EF5FFA4F6081718136
:101F300082819381FF90EF90DF90CF9008951F935F
:101F4000CF93DF93C091E303C550D091E1031AEF23
:101F50001D0F612F84E00E94330C612F8C2F0E9493
:101F6000330C4C2F64E084E00E941F1A4C2F64E075
:101F70008BEF8D0F0E941F1A6091B60388EB93E0E0
:101F80000E94061AC82F8093B8034C2F50E060912E
:101F9000B8032091E303269526952695225030E03C
:101FA0008091B50390E0260F311D821793070CF442
:101FB0009C01421753072CF48C2F0E94870CCF5F93
:101FC000E4CF8091B6038093B703DF91CF911F9147
:101FD0000895CF936091B603C091B7036C17C1F019
:101FE00088EB93E00E94061A9091B803891729F0B4
:101FF0000E94B01BCF910C949F0F8C2F0E94870CD6
:102000008091B6030E94870C8091B6038093B7033A
:10201000CF91089561E08091D1050E94B115809122
:10202000B203882361F09FB7F8942091B2038091A6
:10203000F303213019F48DBB9FBF01C08FBF809186
:10204000D4058CBD8091D5058DBD0895CF93DF93C8
:102050001F92CDB7DEB70E94630C85E00E94BB06DD
:1020600080E00E94BB0689830E940A1089818170EA
:102070000F90DF91CF910895CF93C82F662331F051
:1020800060E086E00E943C100E940A10CB3A31F4D6
:102090000E94630C8C2FCF910C94BB060E942610DB
:1020A0008111FCCFF5CF0F931F93CF93DF9300D017
:1020B000CDB7DEB7162F082F61E082E04A8379831F
:1020C0000E943C10802F0E94BB067981872F0E94BE
:1020D000BB06812F0E94BB064A81842F0E94BB064B
:1020E0000F900F90DF91CF911F910F910C940A10D8
:1020F0000E94630C8BEA0E94BB060C940A10CF93DB
:10210000DF938CB58093D4058DB58093D50561E0C0
:102110008091D1050E94E1150E94C81D80E5809341
:10212000D6051092D7050E940A100E94781080915F
:10213000D2059091D305892BD9F00E94630C8FE9C9
:102140000E94BB0680E00E94BB06C82FD0E0DC2FB7
:10215000CC2780E00E94BB06C82B0E940A10809109
:10216000D2059091D305C817D90711F080E00AC0B5
:1021700061E081E00E943C1080E00E94BB060E946A
:102180000A1081E0DF91CF9108950F931F93CF93B1
:10219000DF931F92CDB7DEB7162F082F60E08BE0DC
:1021A00079830E943C10802F0E94BB067981872F83
:1021B0000E94BB06812F0E94BB0680E00E94BB06E6
:1021C00002E913E080E00E94BB06F80181938F01D1
:1021D000F3E0023B1F07B1F70F90DF91CF911F9102
:1021E0000F910C940A100C94AF0C0F931F93CF9384
:1021F000DF93CDB7DEB7A1970FB6F894DEBF0FBE61
:10220000CDBF19A2FE01B1968B019C010F70112761
:102210002227332744E096958795779567954A95C9
:10222000D1F731970A3011052105310510F440E34B
:1022300001C047E3400F4083611571058105910599
:1022400019F7CF010E94AF0CA1960FB6F894DEBF2C
:102250000FBECDBFDF91CF911F910F9108958F9247
:102260009F92AF92BF92CF92DF92EF92FF920F9325
:102270001F93CF93DF932091E3033091E403213147
:10228000310508F479C08C010C5F1F4F1016110640
:102290000CF072C04091E1035091E203841795075E
:1022A00008F06AC097FF08C068E276E07B01E81A90
:1022B000F90A80E090E006C068E2E62E66E0F62EBD
:1022C00004E010E02832310518F42051310902C031
:1022D00028E130E0BC01600F711F4617570718F462
:1022E0008A01081B190B215F3F4F43E03695279564
:1022F0004A95E1F7CFEFC20FE091E503F091E603D5
:10230000A80162E070E00995A12CB12CD0E0AC16D8
:10231000BD0608F54701800E911E6701C814D90457
:1023200071F0F60184919091CD03E091E903F09171
:10233000EA0389279FEFC91AD90A0995EFCFE4E08C
:10234000EE0EF11CE091E703F091E8030995FFEF31
:10235000AF1ABF0ADCCFE091D103F091D203DF9135
:10236000CF911F910F91FF90EF90DF90CF90BF9092
:10237000AF909F908F900994DF91CF911F910F9113
:10238000FF90EF90DF90CF90BF90AF909F908F9095
:1023900008950F931F930E94951660932B057093D9
:1023A0002C0580932D0590932E05E0912305F09147
:1023B00024050084F185E02D83E295E0099597FFDF
:1023C0001FC00E94951600912B0510912C0520919D
:1023D0002D0530912E05DC01CB01801B910BA20B4A
:1023E000B30B009127051091280520912905309104
:1023F0002A0580179107A207B307B8F28FEF9FEF66
:102400001F910F910895CF92DF92EF92FF920F9359
:102410001F93CF93DF936C017A018B01C0E0D0E072
:10242000CE15DF0589F0D8016D918D01D601ED91B2
:10243000FC910190F081E02DC6010995892B11F4E2
:102440007E0102C02196ECCFC701DF91CF911F9191
:102450000F91FF90EF90DF90CF900895FC01918D48
:10246000828D981761F0828DDF01A80FB11D5D96F6
:102470008C91928D9F5F9F73928F90E008958FEF64
:102480009FEF0895FC01918D828D981731F0828D18
:10249000E80FF11D858D90E008958FEF9FEF08956F
:1024A000FC01918D228D892F90E0805C9F4F821BD3
:1024B00091098F739927089583E295E00E94501245
:1024C00021E0892B09F420E0822F0895FC01848DFE
:1024D000DF01A80FB11DA35ABF4F2C91848D90E04E
:1024E00001968F739927848FA689B7892C93A08929
:1024F000B1898C9180648C93938D848D981306C0E0
:102500000288F389E02D80818F7D80830895EF928A
:10251000FF920F931F93CF93DF93EC0181E0888F9D
:102520009B8D8C8D981305C0E889F989808185FD84
:1025300024C0F62E0B8D10E00F5F1F4F0F73112775
:10254000E02E8C8DE8120CC00FB607FCFACFE8899C
:10255000F989808185FFF5CFCE010E946612F1CF07
:102560008B8DFE01E80FF11DE35AFF4FF0820B8FB8
:10257000EA89FB898081806207C0EE89FF896083D8
:10258000E889F98980818064808381E090E0DF912F
:10259000CF911F910F91FF90EF900895CF93DF930C
:1025A000EC01888D8823C9F0EA89FB89808185FD4B
:1025B00005C0A889B9898C9186FD0FC00FB607FCAC
:1025C000F5CF808185FFF2CFA889B9898C9185FFED
:1025D000EDCFCE010E946612E7CFDF91CF91089533
:1025E00080E090E0892B29F00E945C1281110C940C
:1025F0000000089508952091AC023091AD02281793
:10260000390771F49091AA028091AB02981741F0BA
:10261000E091AA02F0E0EC50FC4F808190E0089538
:102620008FEF9FEF089508951F93CF93DF93DC0101
:102630005C962D913C915D972115310539F481E02F
:1026400090E013969C938E9312973DC05196ED9116
:10265000FC91529750969C915097892F80951FB767
:102660005E964C915E9741FB772770F941FD60952E
:10267000F8944081772311F0492B01C0482340830F
:10268000E9012197F1F748E0508160FF02C0592B22
:1026900001C058235083E9012197F1F76695415015
:1026A00099F7772321F090818923808303C080816B
:1026B000982B90831FBF5C968D919C915D9701979D
:1026C000F1F721E030E0C901DF91CF911F9108952A
:1026D0002091AC023091AD022817390771F4809136
:1026E000AB022091AA0290E0805C9F4F821B91096F
:1026F00060E470E00E94503A089580E090E0089510
:102700002091AC023091AD0228173907B9F49091AD
:10271000AA028091AB02981789F0E091AA02F0E03A
:10272000EC50FC4F80812091AA0230E02F5F3F4F98
:102730002F7333272093AA0290E008958FEF9FEF25
:102740000895089508950E94613C0F931F93CF93BD
:10275000DF93EC0188819981009729F02A813B81E0
:102760002617370788F48B016F5F7F4F0E94973BD6
:10277000009761F0998388831B830A832C813D81B4
:10278000232B11F4FC01108281E001C080E0DF9175
:10279000CF911F910F910895EF92FF920F931F9386
:1027A000CF93DF93FC01248135816115710511F40C
:1027B00080E019C041155105A9F07B01EC018A01A7
:1027C000020F131FB8010E94A513882389F32881E3
:1027D00039818C819D81B701820F931F0E946F3CCC
:1027E0001D830C8381E0DF91CF911F910F91FF90AA
:1027F000EF900895CF93DF93EC0188819981009742
:1028000011F00E94FF3A198218821D821C821B82DD
:102810001A82DF91CF910895EF92FF920F931F9349
:10282000CF93DF93EC017B018A01BA010E94A513CB
:10283000811104C0CE010E94FA1307C01D830C83CE
:10284000B701888199810E946F3CCE01DF91CF91C1
:102850001F910F91FF90EF900895CF93DF93EC01BC
:102860006115710561F0FB0101900020E9F73197D6
:10287000AF01461B570B0E94CC13811103C0CE0140
:102880000E94FA13CE01DF91CF910895CF93DF9389
:10289000EC01FB0144815581608171810E94CC1360
:1028A000811103C0CE010E94FA13CE01DF91CF91B6
:1028B0000895EF92FF920F931F93CF93DF936115CB
:1028C000710511F480E01EC08B01EC01CB010E9468
:1028D00036340097B1F02C813D817C01E20EF31E6D
:1028E000B701CE010E94A513882361F328813981A5
:1028F0008C819D81B801820F931F0E942F34FD822D
:10290000EC8281E0DF91CF911F910F91FF90EF90CA
:102910000895FB0144815581608171810C94CC1331
:10292000EF92FF920F931F93CF93DF93EC018B01F4
:102930006115710551F0CB010E9436347C01BC0158
:10294000CE010E94A513811104C0CE010E94FA138A
:1029500007C0FD82EC82B801888199810E942F34E2
:10296000CE01DF91CF911F910F91FF90EF900895CD
:10297000CF93DF93EC016115710559F0FB010190D4
:102980000020E9F73197AF01461B570B0E940C144A
:1029900002C00E94FA13CE01DF91CF910895FC018D
:1029A000808191810C94FF3A0F931F93CF93DF9313
:1029B000CDB7DEB729970FB6F894DEBF0FBECDBFF7
:1029C0008C01862FF80111821082138212821582E7
:1029D000148250E0BE016F5F7F4F90E00E94703420
:1029E000BE016F5F7F4FC8010E94B81429960FB6D1
:1029F000F894DEBF0FBECDBFDF91CF911F910F9135
:102A00000895FB01DC0111961C921E9213961C92F4
:102A10001E92129715961C921E921497861797076E
:102A200049F0608171816115710521F04481558102
:102A30000C940C140895FC011182108213821282EE
:102A4000158214826115710551F0FB01019000207F
:102A5000E9F73197AF01461B570B0C940C140895FE
:102A60001F920F920FB60F9211242F933F934F9303
:102A70005F936F937F938F939F93AF93BF93EF93E6
:102A8000FF9383E295E00E946612FF91EF91BF9160
:102A9000AF919F918F917F916F915F914F913F91F6
:102AA0002F910F900FBE0F901F9018951F920F92AD
:102AB0000FB60F9211242F938F939F93EF93FF9351
:102AC000E0913305F09134058081E0913905F09172
:102AD0003A0582FD12C0908180913C058F5F8F7313
:102AE00020913D05821751F0E0913C05F0E0ED5D4D
:102AF000FA4F958F80933C0501C08081FF91EF9143
:102B00009F918F912F910F900FBE0F901F9018954E
:102B1000843081F028F4823099F08330A1F0089558
:102B20008830A9F08930B9F08530D1F480918000E7
:102B30008F7D03C0809180008F77809380000895FF
:102B400084B58F7702C084B58F7D84BD0895809150
:102B5000B0008F7703C08091B0008F7D8093B0006C
:102B600008951F93CF93DF93282F30E0F901E25CA3
:102B7000F94F8491F901E058F94FD491F901E759DF
:102B8000F94FC491CC23C9F0162F81110E948815EA
:102B9000EC2FF0E0EE0FFF1FEB5AF94FA591B49127
:102BA0008FB7F894111105C09C91ED2FE095E923A2
:102BB00002C0EC91ED2BEC938FBFDF91CF911F9171
:102BC0000895CF93DF9390E0FC01E058F94F2491F2
:102BD000FC01E759F94F8491882361F190E0880F57
:102BE000991FFC01EC5CF94FC591D491FC01EB5AA3
:102BF000F94FA591B491611109C09FB7F8948881EC
:102C0000209582238883EC912E230BC0623061F4DF
:102C10009FB7F8943881822F809583238883EC9125
:102C20002E2B2C939FBF06C08FB7F894E8812E2BD4
:102C300028838FBFDF91CF910895883028F08E30A0
:102C400010F08E5001C08FEF8770806480937C00FD
:102C500080917A00806480937A0080917A0086FD6A
:102C6000FCCF809178002091790090E0922B08951C
:102C70009FB7F8944091390450913A0460913B0415
:102C800070913C0486B5A89B06C08F3F21F04F5F32
:102C90005F4F6F4F7F4F9FBF762F652F542F442775
:102CA0009A01AB01280F311D411D511DA5E0B0E077
:102CB0000E94563808958F929F92AF92BF92CF9202
:102CC000DF92EF92FF926B017C010E9438164B015C
:102CD0005C01C114D104E104F104F1F00E94381642
:102CE000DC01CB0188199909AA09BB09883E9340E8
:102CF000A105B10570F321E0C21AD108E108F1087D
:102D000088EE880E83E0981EA11CB11CC114D1046A
:102D1000E104F10419F7DDCFFF90EF90DF90CF9041
:102D2000BF90AF909F908F9008952FB7F8946091C7
:102D300035047091360480913704909138042FBF88
:102D400008951F920F920FB60F9211242F933F9365
:102D50008F939F93AF93BF938091350490913604E6
:102D6000A0913704B0913804309134042DE2230F40
:102D70002D3720F40196A11DB11D05C020EB230FB6
:102D80000296A11DB11D20933404809335049093C5
:102D90003604A0933704B09338048091390490919D
:102DA0003A04A0913B04B0913C040196A11DB11DD1
:102DB0008093390490933A04A0933B04B0933C046D
:102DC000BF91AF919F918F913F912F910F900FBE27
:102DD0000F901F9018951F920F920FB60F9211240B
:102DE0002F933F934F935F936F937F938F939F9313
:102DF000AF93BF93EF93FF93E0913A01F0913B01C2
:102E00000995FF91EF91BF91AF919F918F917F9124
:102E10006F915F914F913F912F910F900FBE0F9047
:102E20001F9018951F920F920FB60F9211242F9397
:102E30003F934F935F936F937F938F939F93AF9342
:102E4000BF93EF93FF93E0913801F0913901099519
:102E5000FF91EF91BF91AF919F918F917F916F9172
:102E60005F914F913F912F910F900FBE0F901F9048
:102E700018951F920F920FB60F9211248F930FB6D1
:102E8000F894A8958091600088618093600010920A
:102E900060000FBE8F910F900FBE0F901F9018957E
:102EA0004115510529F4EAE7F0E080818F778083AE
:102EB0006A307105A9F063FD02C088E001C088E2B4
:102EC0006770682B88E10FB6F894A895809360002E
:102ED0000FBE60936000E0E6F0E080818064808354
:102EE000232BA1F483B7817F846083BFF89483B7D9
:102EF000816083BF85B7806685BF8F7D85BF7894ED
:102F0000889583B78E7F83BF78940EC083B7817F07
:102F1000846083BFF89483B7816083BF7894889579
:102F200083B78E7F83BF7894452B29F4EAE7F0E0DE
:102F300080818068808308950F931F93CF93DF93E0
:102F4000EC01062F142F8881882389F0813049F500
:102F500060E08A810E94B115802F0E94BB06812FFC
:102F60000E94BB0661E08A810E94B1151AC0698186
:102F700080EC95E00E94751D602F80EC95E00E942A
:102F80003B19612F80EC95E00E943B1980EC95E0A5
:102F90000E946E1D21E090E0811101C020E0822F8F
:102FA00002C080E090E0DF91CF911F910F910895D2
:102FB000CF92DF92FF920F931F93CF93DF938C01F9
:102FC0006B01C42FFC018081882319F0813051F1FD
:102FD00040C0F801618180EC95E00E94751D6C2F66
:102FE00080EC95E00E943B1980EC95E00E946E1DFC
:102FF000D1E0C0E0811101C0D0E061E0F801818141
:103000000E949E1E1092A9048093A8049091A80487
:103010008091A9049817F9F080EC95E00E94E218DD
:10302000F82EF4CF60E0F80182810E94B1158C2F58
:1030300080680E94BB0680E00E94BB06F82E61E01B
:10304000F80182810E94B115FFEFFF1202C0D5E0A6
:1030500001C0D0E0C0E0F601F0828D2F9C2FDF91FF
:10306000CF911F910F91FF90DF90CF9008951F9205
:103070000F920FB60F9211242F933F934F935F93AC
:103080006F937F938F939F93AF93BF93EF93FF9330
:10309000E091AC02F091AD02309709F451C0968DE9
:1030A000A685B785858591FF04C09C91892329F465
:1030B00047C09C91892309F043C0A389B4899C919E
:1030C0008589809589238C93868997890197F1F763
:1030D000608D718DA685B785558538E020E0CB01E0
:1030E0000197F1F7822F90E095958795282F4C91C5
:1030F000452309F02068315091F7868D81FD209598
:103100008091AB0290E001968F7399273091AA02CB
:10311000381749F0A091AB02B0E0AC50BC4F2C93F3
:103120008093AB0203C0868D8160868F828D938DE4
:103130000197F1F7A389B4899C918589892B8C9398
:10314000FF91EF91BF91AF919F918F917F916F917F
:103150005F914F913F912F910F900FBE0F901F9055
:103160001895E091AC02F091AD02E817F90769F407
:10317000A389B4899C918589809589238C93109229
:10318000AD021092AC0281E0089580E008950895A8
:1031900085ED8093BC008091BC0084FDFCCF109233
:1031A000F00408950895E091A9048091A804E81717
:1031B00030F4F0E0E655FB4F808190E008958FEF0A
:1031C0009FEF08959091A9048091A804981750F456
:1031D000E92FF0E0E655FB4F208130E09F5F9093B0
:1031E000A90402C02FEF3FEFC90108958091A80400
:1031F00090E02091A904821B91090895CF92DF925B
:10320000EF92FF920F931F93CF93DF937C018A017C
:1032100080915F04882389F0EB016B01C40ED51EF9
:10322000CC15DD05F1F06991D701ED91FC9101908C
:10323000F081E02DC7010995F3CF842F413288F446
:103240009091F004943069F440938204FB0120E6ED
:1032500034E0D9019A2F921B981718F491919D93FD
:10326000F9CFC801DF91CF911F910F91FF90EF909F
:10327000DF90CF90089520915F042223C9F0209120
:10328000F103203240F021E030E0FC01338322835F
:1032900080E090E008958091F203E82FF0E0E15C97
:1032A000FB4F60838F5F8093F2038093F10309C02B
:1032B0008091F004843029F481E08093820460934B
:1032C000600481E090E008950F931F93CF93DF9304
:1032D000C82FD62F8A01E091CF03F091D003099532
:1032E0008091CE03882329F060E085E00E94B1152B
:1032F00006C0E091D303F091D40380E00995E091FA
:10330000D303F091D40381E20995E091D303F091C6
:10331000D4038C2F0995E091D303F091D4030115C8
:10332000110519F00150802F03C0C091E1038FEF08
:103330008C0F0995E091D303F091D40382E20995B3
:10334000E091D303F091D4038D2F09958091E3038D
:103350009091E40323E0969587952A95E1F7E09113
:10336000D303F091D403815009958091CE03882333
:1033700041F061E085E0DF91CF911F910F910C94B6
:10338000B115E091D103F091D2030995E091CF03FB
:10339000F091D0030995E091D303F091D40380E438
:1033A000DF91CF911F910F910994E091CF03F0919C
:1033B000D00309958091CE03882321F060E085E059
:1033C0000C94B115E091D303F091D40380E00994FB
:1033D0000F931F93CF93DF931F92CDB7DEB78983EF
:1033E0000E94D5190EEC13E0D8011596ED91FC91D1
:1033F000169789810995D8011396ED91FC91149740
:103400000F90DF91CF911F910F910994FC01808162
:10341000681798F09091E30396959695969592503B
:10342000492F50E0262F30E0281B3109241735079B
:103430002CF0691B81E0860F0895862F08950F9365
:103440001F93CF93DF93162FC42FD62FD695D695E3
:10345000D695042F0695069506956D2F70E0E091A0
:10346000E503F091E60341E050E090E00995912FEB
:1034700097708091CD03E091E903F091EA03D013B6
:1034800014C04C2F411B27E030E0B901641B7109C7
:103490002FEF30E002C0359527956A95E2F701C01D
:1034A000220F9A95EAF7822733C02FEF30E001C050
:1034B000220F9A95EAF782270995DF5F10E08D2F9A
:1034C00090E0E091E703F091E803801791075CF446
:1034D00009958091CD03E091E903F091EA0380958D
:1034E0000995DF5FECCF09954C2F50E04095509542
:1034F000477055278FEF90E002C0959587954A95C4
:10350000E2F79091CD03E091E903F091EA03892776
:103510000995E091D103F091D203DF91CF911F91F2
:103520000F9109940F931F93CF93C62F0FED13E0C4
:1035300066956695669570E0D8011696ED91FC91BA
:10354000179741E050E090E00995C77081E090E066
:1035500001C0880FCA95EAF79091CD03D8011A9659
:10356000ED91FC911B9789270995E091D103F0918A
:10357000D203CF911F910F910994FC013196E491F0
:10358000A9EDB3E0EC93FC013296E4911196EC9333
:103590001197F0E0379623E0F595E7952A95E1F746
:1035A0001296EC931297FC013396E4911396EC93E8
:1035B0001397049615969C938E93149708954F92A3
:1035C0005F926F927F928F929F92AF92BF92CF92B3
:1035D000DF92EF92FF920F931F93CF93DF93C82E4A
:1035E0008A017901D62ED694D694D694C82FD0E0ED
:1035F0004091E1035091E2034C1B5D0B6D2D70E097
:10360000E091E503F091E603CE0109957C2C812C35
:10361000412C912C272D30E04091D9038091E1037A
:103620009091E203841B91098217930730F0F8010F
:10363000E90DF11D8081811133C0D394AD2CB12CE3
:103640008091E3039091E40323E0969587952A9572
:10365000E1F7E091D103F091D203A816B90608F082
:103660006CC083948091DB03881209C0D801A90D36
:10367000B11D8C91882309F460C0812C01C0942C69
:1036800009954091E1035091E2034C1B5D0BE091E1
:10369000E503F091E603B501CE0109957C2C492C98
:1036A000F801E90DF11D80819091DC03891708F084
:1036B000891B9091DB036090D903282D30E0899F0E
:1036C000200D311D1124629EC001639E900D1124B6
:1036D000512C662069F1E091DD03F091DE039C013D
:1036E0002F5F3F4F5901E114F10421F4E80FF91F56
:1036F000849113C031E0E316F10431F4E80FF91FAF
:103700009491892F852908C0EA0DFB1D9491E92F1A
:10371000E07F8E2F85299F70592E9091CD03E091E7
:10372000E903F091EA0389270995C5016A94D1CF8D
:103730008091D903780E93946DCF0995892DDF91EF
:10374000CF911F910F91FF90EF90DF90CF90BF909E
:10375000AF909F908F907F906F905F904F90089563
:10376000CF93DF93E091E503F091E60340E050E072
:1037700060E070E080E090E009958091E303909133
:10378000E40323E0969587952A95E1F7C82FCC238B
:10379000A1F0D091E103DD2349F0E091E903F0913C
:1037A000EA038091CD030995D150F5CFE091E7036D
:1037B000F091E8030995C150EACFE091D103F0916F
:1037C000D203DF91CF9109941F920F920FB60F92FF
:1037D00011242F933F934F935F936F937F938F9316
:1037E0009F93AF93BF93EF93FF938091B900887F2E
:1037F000803609F49CC068F5883209F45BC090F407
:10380000803109F454C038F4882309F4F6C08830B4
:1038100009F44DC0F6C0883109F44CC0803209F477
:103820005DC0EFC0803409F468C048F4803309F407
:1038300055C0883309F0E5C08093EE04D8C08035C8
:1038400009F44FC0883509F45DC0883409F0D9C047
:10385000D6C0883909F4C7C0A8F4883709F467C00E
:1038600038F4883609F463C0803709F460C0C9C0F1
:10387000883809F4B8C0803909F45FC0803809F08D
:10388000C0C05BC0803B09F486C038F4803A09F4BC
:1038900066C0883A09F47FC0B4C0803C09F4A7C070
:1038A000883C09F4A4C0883B09F48AC0AAC080916E
:1038B000EB0410C09091ED048091EC04981770F522
:1038C000E091ED0481E08E0F8093ED04F0E0E6538B
:1038D000FB4F80818093BB0085EC86C08093EE0413
:1038E0008EC0E091ED0481E08E0F8093ED04809115
:1038F000BB00F0E0E653FB4F80839091ED04809194
:10390000EC046EC0E091ED0481E08E0F8093ED0435
:103910008091BB00F0E0E653FB4F80838091EF0481
:1039200081116DC081E08093EA0484EA61C083E084
:103930008093F0041092A604CFCF8091A604803229
:1039400008F051C0E091A60481E08E0F8093A60498
:103950008091BB00F0E0EA57FB4F8083BDCF85EC40
:103960008093BC001092F0048091A604803230F461
:10397000E091A604F0E0EA57FB4F10826091A604A4
:1039800070E0E0918404F091850486E894E0099564
:103990001092A60436C084E08093F0041092830451
:1039A00010928204E0918004F09181040995809145
:1039B0008204811105C081E080938204109260042A
:1039C000E091830481E08E0F80938304F0E0E05A5D
:1039D000FB4F80818093BB0090918304809182048F
:1039E000981708F479CF85E88093BC000AC085EC6D
:1039F0008093BC001092F00404C01092EE040E9468
:103A0000C818FF91EF91BF91AF919F918F917F91D6
:103A10006F915F914F913F912F910F900FBE0F903B
:103A20001F9018952091F10390913E04213208F0E7
:103A300049C08091F0048111FCCF32E03093F00452
:103A40006093EF043FEF3093EE041092ED04209367
:103A5000EC04AFE3B4E04AEC54E0FA013E2F341B2F
:103A6000321718F43D913193F9CF1092EB04209165
:103A7000EB04990F922B9093EB049091EA04913010
:103A800061F41092EA049091EB049093BB00909142
:103A9000BC0093FDF8CF95EC01C095EE9093BC006F
:103AA0009091F0049230E1F39091EE049F3F79F011
:103AB0008091EE04803241F08091EE04803331F049
:103AC00084E005C081E003C082E001C083E0109281
:103AD000F2031092F10310925F04089561E00C94D8
:103AE000121D80EC95E00C946E1D81E080935F04C4
:103AF00060933E041092F2031092F10308956091D6
:103B0000000180EC95E00E94751D1092A7040895B5
:103B1000CF93DF931F92CDB7DEB7682F8091A704B4
:103B20008E3148F069830E94711D0E947F1D80E4E0
:103B30000E94881D698180EC95E00E943B1980916C
:103B4000A7048F5F8093A7040F90DF91CF91089512
:103B50000F931F93CF93DF93EC018C01060F171F78
:103B6000C017D10721F089910E94881DF9CFDF91FC
:103B7000CF911F910F910895862F413208F040E2B6
:103B8000642F0E949E1E1092A9048093A804089599
:103B9000CF93CFB7F89480913D04811127C0E3E71C
:103BA000F6E08491EAE8F6E09491E82FF0E0EE0F79
:103BB000FF1FEC5CF94FA591B491EC91E92321F43E
:103BC00061E08AE00E94B11561E08AE00E94E1159F
:103BD0008CB580618CBD8CB580648CBD61E08DE05E
:103BE0000E94E11561E08BE00E94E11580913D04A7
:103BF0008F5F80933D04CFBFCF910895CF93DF9324
:103C0000EC0161E087E00E94B115BE01DD0F880B79
:103C1000990B0E945B1660E087E0DF91CF910C94D6
:103C2000B11586E993E09093390180933801E9E674
:103C3000F0E080818C7F82608083E89A0895CF9342
:103C4000DF93E0E4F6E08491E2E8F6E0D491EBE67D
:103C5000F6E0C491CC2391F081110E948815EC2FDD
:103C6000F0E0EE0FFF1FE15AF94FA591B491EC91EE
:103C7000ED2381E090E021F480E002C080E090E05C
:103C8000DF91CF910895682F80EC95E00C943B195B
:103C9000EF92FF921F93CF93DF931F92CDB7DEB7C2
:103CA000162F9CECE92E95E0F92E682FD7018D9107
:103CB0009C9149830E94751DF70180819181DC01EF
:103CC000ED91FC910190F081E02D612F0995F701B4
:103CD00080819181DC01ED91FC910190F081E02DDA
:103CE0004981642F0995F701808191810F90DF91BF
:103CF000CF911F91FF90EF900C946E1D482F6EE0B6
:103D00008091CE050C94481E482F6DE08091CE0521
:103D10000C94481E482F6CE08091CE050C94481EF0
:103D20008091220590912105981B97FD9C5F992316
:103D300021F08F5F83708093220508959091F004A5
:103D40009111FCCF91E09093F0049093EF042FEF4A
:103D50002093EE041092ED04260F2093EC04909330
:103D6000EB049091EB04880F892B8093EB048091F6
:103D7000EA04813061F41092EA048091EB048093AC
:103D8000BB008091BC0083FDF8CF85EC01C085EEBF
:103D90008093BC008091F0048130E1F38091ED04C8
:103DA000861710F46091ED04AAECB4E02AEA34E03E
:103DB000F9018E2F821B861718F48D918193F9CF0C
:103DC000862F0895CF93DF93C82FD62F682F809129
:103DD000CC059091CD050E94751D8091CC059091E8
:103DE000CD05DC01ED91FC910190F081E02D6D2F6E
:103DF000099560E08091CC059091CD050E94121D3F
:103E000061E08C2F0E949E1E1092A9048093A8044A
:103E10008091CC059091CD05DC01ED91FC91048061
:103E2000F581E02D0995892B61F08091CC05909169
:103E3000CD05DC01ED91FC910680F781E02D09951F
:103E400001C080E0DF91CF9108958F929F92AF9251
:103E5000BF92CF92DF92EF92FF920F931F93CF9377
:103E6000DF9366E08091CE050E94E21E182F64E089
:103E70008091CE050E94E21E181709F405C1C82FD3
:103E8000D0E0C11BD109D7FDA0962091CF052C9F72
:103E9000C0012D9F900D11248C01000F111F080FE0
:103EA000191F67E58091CC059091CD050E94751D85
:103EB0008091CC059091CD05DC01ED91FC910190B4
:103EC000F081E02D67E009958091CC059091CD05BA
:103ED0000E946E1D30E2C32ED12C101611060CF07C
:103EE000D5C0013211056CF06091CF05B3E06B9F36
:103EF000B0011124C6010E94503A7601E81AF90A6D
:103F000001C078010E191F09A70167E570E08091D3
:103F1000CC059091CD050E94BC1D1E141F04ECF62B
:103F2000809121058F5F837080932105B12C809152
:103F3000CC059091CD05DC01ED91FC910680F781D7
:103F4000E02D0995A82E8091CC059091CD05DC013E
:103F5000ED91FC910680F781E02D0995982E8091D6
:103F6000CC059091CD05DC01ED91FC910680F781A7
:103F7000E02D0995882EE0912105B4E0EB9FF0013A
:103F80001124EF50FB4FD501C401A370BB278083E0
:103F90009183A283B3838091CF058230A0F1809179
:103FA000CC059091CD05DC01ED91FC910680F78167
:103FB000E02D0995A82E8091CC059091CD05DC01CE
:103FC000ED91FC910680F781E02D0995982E809166
:103FD000CC059091CD05DC01ED91FC910680F78137
:103FE000E02D0995882EE0912105B4E0EB9FF001CA
:103FF0001124EF5FFA4FD501C401A370BB27808362
:104000009183A283B3838091CF058330A0F1809107
:10401000CC059091CD05DC01ED91FC910680F781F6
:10402000E02D0995A82E8091CC059091CD05DC015D
:10403000ED91FC910680F781E02D0995982E8091F5
:10404000CC059091CD05DC01ED91FC910680F781C6
:10405000E02D0995882EE0912105B4E0EB9FF00159
:104060001124EF5EFA4FD501C401A370BB278083F2
:104070009183A283B3832091CF053DEF3203C0012A
:104080001124E80EF91E49CFC0E0D0E0CE01DF9147
:10409000CF911F910F91FF90EF90DF90CF90BF9045
:1040A000AF909F908F900895FF920F931F93CF939F
:1040B000DF93F82ED62FC42F0CEC15E0682FF801F3
:1040C00082810E94E21E8D23482F4C2B6F2DF80118
:1040D0008281DF91CF911F910F91FF900C94481E28
:1040E000482F6CEF8AE00C945420482F63EE8AE04E
:1040F0000C945420482F6FE98AE00C945420482FE8
:104100006FE188E00C945420FF920F931F93CF939C
:10411000DF9300D000D0CDB7DEB70E94C911FC01FB
:1041200097FD11C08D32910591F0C0970A9778F0F4
:10413000E0912305F09124050680F781E02D83E2CC
:1041400095E00995EACF60E070E0CB014CC020E03B
:1041500030E0A901F12CE130F105F1F0ED32F1058B
:10416000C9F0CF01C0970A97B8F4AAE0B0E00E9466
:1041700056388F01FF0F220B330BDC01CB01800F70
:10418000911FA21FB31F9C01AD01205331094109AA
:10419000510902C0FF24F394E0912305F091240516
:1041A0000680F781E02D83E295E029833A834B83F3
:1041B0005C8309950E94C911FC01C09729813A814D
:1041C0004B815C810A9738F2E130F10521F2FF2042
:1041D00041F066277727CB01621B730B840B950B8D
:1041E00002C0CA01B9010F900F900F900F90DF919C
:1041F000CF911F910F91FF9008950F931F93CF932D
:10420000DF931F92CDB7DEB7162F082F60E083E053
:1042100079830E943C10802F0E94BB067981872FF2
:104220000E94BB06812F0E94BB0680E00E94BB0655
:1042300089830E940A1089810F90DF91CF911F918D
:104240000F910895CF92DF92EF92FF92CF939C014E
:104250008091FB059091FC05853F910531F06DE75C
:1042600070E00E943C3AC62F01C0C2E0B901330F92
:10427000880B990B0E94123720E030E04CE850E4A4
:104280000E9471376B017C016C2F70E080E090E040
:104290000E9412379B01AC01C701B6010E94713721
:1042A00020E030E04AE754E40E943639CF91FF9095
:1042B000EF90DF90CF900895CF93DF93CDB7DEB727
:1042C000CF54D1090FB6F894DEBF0FBECDBF78949E
:1042D00084B5826084BD84B5816084BD85B582600B
:1042E00085BD85B5816085BD80916E0081608093BC
:1042F0006E00109281008091810082608093810025
:104300008091810081608093810080918000816034
:10431000809380008091B10084608093B10080918F
:10432000B00081608093B00080917A0084608093B7
:104330007A0080917A00826080937A0080917A007E
:104340008E7F80937A0080917A00806880937A00D3
:104350001092C10060E086E00E94E11562E087E013
:104360000E94E11560E08EE00E94E11560E08FE0C0
:104370000E94E11561E081E10E94E11561E081E1C7
:104380000E94B11560E080E00E94E11561E081E0EB
:104390000E94E11562E082E00E94E11561E084E0A4
:1043A0000E94E11561E084E00E94B11560E085E0C3
:1043B0000E94E11560E086E00E94E11561E087E07F
:1043C0000E94E11560E087E00E94B11560E088E09E
:1043D0000E94E11562E089E00E94E11561E08AE057
:1043E0000E94E11560E08AE00E94B1151092F30589
:1043F0001092F2051092F1051092F0051092EF055F
:104400001092EE0581E390E09093F5058093F4051A
:104410009091E405963108F059C027E030E03093E0
:10442000EF052093EE052FE230E03093F105209365
:10443000F0052BE130E03093F3052093F205209155
:104440006800983054F031E09E300CF430E081E0A8
:1044500001C0880F3A95EAF701C084E0822B80936F
:10446000680098303CF09E3044F096314CF020E0EB
:1044700030E008C02DE630E005C02BE630E002C099
:104480002CE630E03093EC052093EB05983034F4C3
:1044900081E001C0880F9A95EAF710C0292F092EF4
:1044A000000C330B9E301CF42850310902C02E50F2
:1044B000310981E001C0880F2A95EAF78093ED0564
:1044C0008091F4059091F5050197F1F78091F2053F
:1044D0009091F305892B21F18091AC029091AD026E
:1044E00025E0883D9207E1F0009711F00E94B11895
:1044F0008091F6058E7F8093F6051092AB021092A4
:10450000AA0288ED95E09093AD028093AC02E09111
:10451000EB05F091EC0590818091ED05892B80836E
:10452000E0913305F091340582E08083E0912F051E
:10453000F09130051082E0913105F091320589E16A
:10454000808310923B05E0913705F091380586E0B5
:104550008083E0913505F09136058081806180830C
:10456000E0913505F0913605808188608083E09187
:104570003505F0913605808180688083E0913505AE
:10458000F091360580818F7D80830E94C81D0E9436
:10459000CB0D80E88093C1026FE680EC95E00E942D
:1045A000751D80E090E00E94431E6091C10280EC86
:1045B00095E00E943B1980EC95E00E946E1D0E94E0
:1045C0007F100E9426108111FCCF60E089EB0E94D1
:1045D0003C100E940A1062E080E00E94E20768EC52
:1045E00070E080E090E00E945B166CE281E00E9447
:1045F000E20768E18AE00E94E20762E08BE00E9445
:10460000E20762E08CE00E94E20764E082E10E943F
:10461000E2076FE383E10E94E20767E085E10E9421
:10462000E20764E284E10E94E20768E081E20E941E
:10463000E20760E882E20E94E20768E087E20E9407
:10464000E20761E080E00E94E2070E94CB0D60E497
:1046500080EC95E00E94751D86EE90E00E94431E5E
:1046600080E090E00E94431E80EC95E00E946E1D69
:1046700080E2EEE5F3E0DF01C82E1D92CA94E9F76F
:1046800094E1E9EBF3E0DF01C92E1D92CA94E9F74A
:10469000EDEFF2E0DF011D929A95E9F7E2E9F3E030
:1046A000DF011D928A95E9F787E0E1ECF2E0DF0196
:1046B0001D928A95E9F78AE0E7EBF2E0DF011D92AF
:1046C0008A95E9F781E891E00E94BD1A1092CE0325
:1046D0008FE79DE19093D0038093CF0381E79DE125
:1046E0009093D2038093D10328E83DE13093D40323
:1046F0002093D30388EA9DE19093D6038093D5035A
:1047000047EC58E15093D8034093D7031092E0034D
:104710001092DF0340E450E05093E4034093E3033E
:1047200040E850E05093E2034093E10344E659E14E
:104730005093E6034093E50342EA53E15093E803C4
:104740004093E7033093EA032093E9039093EC034B
:104750008093EB0381EA93E19093F0038093EF035E
:1047600002E611E029E1F22EF00EF80184910E9498
:10477000E8190F5F1F4FF012F8CF0E94D519E09192
:10478000D303F091D40381E80995E091D303F0912C
:10479000D4038FEF0995E091D103F091D2030995ED
:1047A00010920201109201010E94B01B80EC95E072
:1047B0009093CD058093CC050E94CB0D87E080932C
:1047C000B80087E58093CE056FEF0E94E21E6EEF82
:1047D0008091CE050E94E21E8093D0058FEF8093DA
:1047E000B60281E08093B50283E08093B402109218
:1047F000B3021092B2028BE991E09093B1028093E0
:10480000B00280E090E49093AF028093AE02E12C7E
:1048100090E4F92E0BE911E020E030E043E061E0A4
:104820008FEF0E94C10C1BA28091F7058823D9F05D
:104830008130D9F40E94C81D8CB58C7F8CBD8DB59C
:104840008E7F8DBD8CB58F7D8CBD8CB58C608CBD05
:1048500061E08091F9050E94E11561E08091F90520
:104860000E94B11502C00E94CB0D1FA680E197E205
:104870002FA52F5F2FA70197D9F74FE0BE016F5FDC
:104880007F4F87EF95E00E94D8171BA22091030667
:10489000213009F069C08091090690910A0684369A
:1048A000910539F0883C910539F0C29731F483E0E5
:1048B00001C082E08BA301C02BA32091050630919B
:1048C00006068BA12430310541F02830310539F03E
:1048D0002230310531F0846003C0886001C08C60F3
:1048E0008BA320910706309108068BA1203AF1E0B6
:1048F0003F0771F180F42A31310511F128F42D3090
:10490000310511F580612FC024333105D9F0203DE8
:104910003105E1F019C022305DE03507F9F040F4CF
:104920002134A3E03A07B1F02C373640A9F00CC08F
:104930002430EAE13E07A1F02231344399F004C06B
:10494000806211C080630FC080640DC080650BC0A1
:10495000806609C0806707C0806805C0806903C0A1
:10496000806A01C0806B8BA34BA160E187EF95E06B
:104970000E949C1743E1BE016D5D7F4F87EF95E07C
:104980000E94D8178BA18F778BA39091040691304A
:1049900011F480688BA34BA163E187EF95E00E943F
:1049A0009C171BA28091FA05813009F048C08091C4
:1049B000FB059091FC05853F910599F028F48D3712
:1049C000910569F482E00CC0843F21E0920729F050
:1049D000883E934021F488E003C084E001C08CE06D
:1049E0008BA32091FD053091FE058BA1203D310563
:1049F000F1F058F42A313105A1F02433310599F052
:104A00002D30310591F4806119C0213443E0340721
:104A100091F02C3756E0350781F0203A314029F4E7
:104A200008C080620BC0806309C0806407C08065D5
:104A300005C0806603C0806701C080688BA34BA15E
:104A400061E187EF95E00E949C174FE0BE016F5F28
:104A50007F4F87EF95E00E94D81780E2898340E27C
:104A600060E187EF95E00E949C1743E1BE016F5F14
:104A70007F4F87EF95E00E94D81789818F778983D0
:104A80004EE369E187EF95E00E949C1740E468E5FA
:104A900087EF95E00E949C1740E16DE087EF95E07D
:104AA0000E949C1740E660E187EF95E00E949C170A
:104AB0004FE868E587EF95E00E949C174CE869E5B0
:104AC00087EF95E00E949C174FE76AE587EF95E036
:104AD0000E949C1740E86BE587EF95E00E949C17C9
:104AE00048E06EE587EF95E00E949C1783E091E037
:104AF0009093B4038093B30384E08093B503109242
:104B0000B6031092B7031092B8030E94111E61E021
:104B10008AE00E94B11520E030E040EA51E060E315
:104B20008CE00E94DF1A89EBE82E83E0F82E08EE75
:104B300013E0C8010E942F38D7018D937D010F5FCC
:104B40001F4F073FB3E01B07A1F78091C503809378
:104B50001F018091C603809320018091C703809339
:104B600021018091C8038093220160E08AE00E94C5
:104B7000B1150E94B01B0E949F0F8EE00E941D166F
:104B8000BC01990F880B990B0E94123723E333E382
:104B900043E550E40E94713720E030E040E85AE3FA
:104BA0000E9471372DEC3CEC4CE050E40E94363909
:104BB0002AE939E949E550E40E9471376093860398
:104BC00070938703809388039093890382E390E036
:104BD0000E94FE1D8091EC02882319F00E94010AB8
:104BE00076C080912501882309F471C00E94951632
:104BF0000091E8021091E9022091EA023091EB0263
:104C0000DC01CB01801B910BA20BB30B81369A4EBA
:104C1000A105B10508F45BC00E9495166093E802F7
:104C20007093E9028093EA029093EB020E94D3030F
:104C300080912301909124018436910509F047C0A9
:104C40000FB6F894A8958091600088618093600009
:104C5000109260000FBE0E943E0662E080E00E945B
:104C6000E2070E94D30380917A0010927A0080912B
:104C70006D00816080936D00DA9A80916800846095
:104C8000809368008091C1008F7E8093C1008091E5
:104C9000C100877F8093C1000E94111E20E030E098
:104CA00040E050E06AE070E08AE893E00E9450172C
:104CB000809168008B7F809368008091C100806143
:104CC0008093C1008091C10088608093C100809171
:104CD000E7028823E9F00E9495160091E302109103
:104CE000E4022091E5023091E602DC01CB01801B59
:104CF000910BA20BB30B81329E44A105B10540F08C
:104D00001092E70284E690E09093240180932301BF
:104D100080912301909124018436910509F0B0C05F
:104D20008EE00E941D168090860390908703A090CD
:104D30008803B0908903BC01990F880B990B0E94DE
:104D4000123723E333E343EA5BE30E94713720E049
:104D500030E0A9010E94CA38A50194010E94C93817
:104D60006B017C012DEC3CEC4CEC5EE30E94DE39E7
:104D7000181654F02DEC3CEC4CEC5EEBC701B60180
:104D80000E940B3787FF05C020E030E040EA51E485
:104D900004C020E030E048E453E4C701B6010E94BB
:104DA00036399B01AC01C501B4010E94CA38609339
:104DB000860370938703809388039093890360919F
:104DC000860370918703809188039091890309EB92
:104DD00013E022E042E00E940F3420E030E0A8011E
:104DE00060E084E30E94DF1A20E030E04FEA51E007
:104DF00068E38AE00E94DF1A20E030E045EB51E0F2
:104E000068E38CE40E94DF1A20E030E04FE151E0DB
:104E100068E388E50E94DF1A0E948905019771F412
:104E20008091B603811102C08091B50381508093B7
:104E3000B6030E94E90F0E947C0516C00E948905F6
:104E4000029791F42091B603422F50E08091B50370
:104E500090E001974817590724F42F5F2093B60379
:104E6000E8CF1092B603E5CF0E941B0A8091B603EB
:104E700090E001969093E2028093E1020C94473215
:104E80008130910509F06FC20E941B0A0E94DA0668
:104E900080E090E00E94222160932B0370932C030A
:104EA00080932D0390932E0380E090E00E942221B6
:104EB00060932703709328038093290390932A0318
:104EC00080E090E00E9422216093230370932403EA
:104ED0008093250390932603609105067091060642
:104EE0007695679580E090E00E94103720E030E0F2
:104EF000A9010E94713720E030E04AE754E40E94A3
:104F0000363960931F03709320038093210390939D
:104F1000220360931B0370931C0380931D039093E3
:104F20001E036093170370931803809319039093E3
:104F30001A030E94951600911303109114032091F7
:104F4000150330911603DC01CB01801B910BA20BE2
:104F5000B30B4A97A105B10508F4F4C10E94951658
:104F600060931303709314038093150390931603B7
:104F70006091D8027091D9028091DA029091DB029F
:104F80000E9410376B017C018090F9029090FA0228
:104F9000A090FB02B090FC02A50194010E94C938C8
:104FA00020E030E040E251E40E9436399B01AC0140
:104FB000C501B4010E94CA389B01AC016093F9029B
:104FC0007093FA028093FB029093FC02C701B60132
:104FD0000E94C93820E030E040E450E40E943639B5
:104FE0000E949406382E30943092F8026091D402D8
:104FF0007091D5028091D6029091D7020E9410370D
:105000006B017C014090550350905603609057030C
:1050100070905803A30192010E94C93820E030E04B
:1050200040E251E40E9436399B01AC01C301B20158
:105030000E94CA389B01AC016093550370935603DC
:105040008093570390935803C701B6010E94C93853
:1050500020E030E040E450E40E9436390E9494069B
:10506000082F00950093F7026091D0027091D10251
:105070008091D2029091D3020E9410376B017C0183
:105080004090F3025090F4026090F5027090F602A6
:10509000A30192010E94C93820E030E040E251E4CF
:1050A0000E9436399B01AC01C301B2010E94CA388B
:1050B0009B01AC016093F3027093F4028093F502BC
:1050C0009093F602C701B6010E94C93820E030E093
:1050D00040E450E40E9436390E949406182F10953F
:1050E0001093F202C090DC02D090DD02E090DE026C
:1050F000F090DF02C701B6010E9410372B013C017E
:105100008090EE029090EF02A090F002B090F10239
:10511000A50194010E94C93820E030E040E05EE340
:105120000E9471379B01AC01C501B4010E94CA38CD
:105130009B01AC016093EE027093EF028093F0024A
:105140009093F102C301B2010E94C93820E030E01F
:1051500040E251E40E94363920E030E040EA50E479
:105160000E9436390E9494068093ED0290910B01C3
:10517000913049F4E09111039E0F90931103F0E0F8
:10518000E350FD4F308290910C01913049F4E09151
:1051900011039E0F90931103F0E0E350FD4F008345
:1051A00090910D01913049F4E09111039E0F90937D
:1051B0001103F0E0E350FD4F108390910E01913008
:1051C00049F4E09111039E0F90931103F0E0E35036
:1051D000FD4F808380910F01813049F4E0911103EC
:1051E0008E0F80931103F0E0E350FD4F1082809109
:1051F0001001813049F4E09111038E0F8093110367
:10520000F0E0E350FD4F108280911101813049F4AC
:10521000E09111038E0F80931103F0E0E350FD4FF6
:10522000108280911201813049F4E09111038E0FB8
:1052300080931103F0E0E350FD4F10828091130141
:10524000813049F4E09111038E0F80931103F0E057
:10525000E350FD4F108280911401813049F4E091B8
:1052600011038E0F80931103F0E0E350FD4F108285
:10527000C701B6010E94F51089EE91E00E94F3107B
:105280006091D8027091D9028091DA029091DB028C
:105290000E94F51089EE91E00E94F3106091D40213
:1052A0007091D5028091D6029091D7020E94F5109C
:1052B00089EE91E00E94F3106091D0027091D102CA
:1052C0008091D2029091D3020E94F51089EE91E074
:1052D0000E94F31088EB91E00E94F310809112037A
:1052E000833069F510921203109211038091E70246
:1052F000882341F161E08AE00E94B1150DEF12E0D0
:10530000D8016D918D0188ED95E00E941413B3E0F2
:105310000D301B07A9F761E088ED95E00E9414139A
:1053200062E088ED95E00E94141363E088ED95E05B
:105330000E94141360E08AE00E94B11503C08F5FE1
:10534000809312038091E70220E030E0882319F077
:105350004AEB51E002C04CEB51E060E08AE70E946A
:10536000DF1A0C94E6328230910509F0C8C00E9421
:105370001B0A0E94C10569EB71E0CE0189960E946B
:105380001B158091CA028A3030F46FE771E0CE01BC
:1053900089960E9490144AE06091CA02CE018396D9
:1053A0000E94D414BE016D5D7F4FCE0101960E9414
:1053B00001156DEA71E0CE0101960E942D14BC0129
:1053C000CE0189960E948914CE0101960E94CF14C5
:1053D000CE0183960E94CF148091C9028A3030F4A6
:1053E0006DE771E0CE0189960E9459144AE0609100
:1053F000C902CE0183960E94D414BE016D5D7F4F19
:10540000CE0101960E9401156DEA71E0CE01019670
:105410000E942D14BC01CE0189960E948914CE01F0
:1054200001960E94CF14CE0183960E94CF148091E2
:10543000C8028A3030F46BE771E0CE0189960E9491
:1054400059144AE06091C802CE0101960E94D4141A
:10545000BE016F5F7F4FCE0189960E948914CE01F5
:1054600001960E94CF146DA57EA56F5F7F4FCE0180
:1054700089960E94480F40E060E188E20E94F10DA9
:1054800064E670E080E090E00E945B160E9489056F
:105490008130910509F58091190190911A01803AA6
:1054A0009F4059F488EE93E090931A01809319017C
:1054B00020E030E04EEB51E00AC080EA9FE090939C
:1054C0001A018093190120E030E04BEC51E060E2DA
:1054D0008FE10E94DF1A0EC0029771F410925D03F3
:1054E00010925C0388E090E0909324018093230164
:1054F0000E9402080E947C05CE018996DEC5833099
:10550000910509F0C9C40E94670680E00E947E1ED2
:10551000812C912C5401412C512C320110EEC12EC2
:1055200013E9D12E14E0E12EF12CCCAADDAAEEAACB
:10553000FFAAC8AED9AEEAAEFBAE23961CAE1DAE36
:105540001EAE1FAE23971DAE1CAE3FEF24963FAF9D
:1055500024971EAE212C312C80912301909124019F
:105560008436910509F468C420E001E0020D10E0E2
:10557000622F66956695669570E0E091E503F0917F
:10558000E60341E050E0C80160962FAF60970995AF
:10559000E091E903F091EA038091CD030995E09150
:1055A000D103F091D203099560962FAD6097285FE3
:1055B0002833F1F60E94251F8091220590E0FC011E
:1055C000EE0FFF1FEE0FFF1FEF5FFA4FC080D1807D
:1055D000E280F380880F991F880F991FFC01EF501C
:1055E000FB4F208131814281538128AB39AB4AABDB
:1055F0005BAB0E94901E0E946A0F6035734C810560
:105600009105E8F40E94B01B68ED71E0CE010196AF
:105610000E941B1542E050E068E170E0CE01019667
:105620000E94DC03CE0101960E94CF140E946A0FF3
:105630006035734C81059105C8F3212C312C8CAD5C
:105640009DAD892B31F42396CCAEDDAEEEAEFFAE30
:105650002397C701B60123962CAD3DAD4EAD5FAD8E
:105660002397621B730B840B950B2AE030E040E01C
:1056700050E00E94373823968CAD9DADAEADBFADE6
:105680002397820F931FA41FB51F2C968CAF9DAF3D
:10569000AEAFBFAF2C972CA93DA94EA95FA9C216EA
:1056A000D306E406F50674F40E943816CCAADDAAE7
:1056B000EEAAFFAA88A999A9AAA9BBA988AF99AF00
:1056C000AAAFBBAF8C149D04AE04BF0444F40E9487
:1056D00038164601570148A859A86AA87BA891E73F
:1056E000C9169FEFD90693E0E906F10434F08091E2
:1056F000180185508093180110C0A0E4CA16ACE9C7
:10570000DA06E104F1045CF4809118018A3F18F490
:105710008B5F80931801809118010E94841E28A934
:1057200039A94AA95BA921373F4F4340510534F0BD
:105730008091170185508093170112C028A939A9BB
:105740004AA95BA920343C49410551055CF480918C
:1057500017018A3F18F48B5F80931701809117011E
:105760000E948A1EC701B6010E94123728966CAFAC
:105770007DAF8EAF9FAF2897C0905503D090560352
:10578000E0905703F0905803A70196010E94C93892
:1057900020E030E040E251E40E9436399B01AC0148
:1057A000C701B6010E94CA389B01AC016093550342
:1057B0007093560380935703909358032C966CADC7
:1057C0007DAD8EAD9FAD2C9760962FAF60972D96D7
:1057D0003FAF2D972E964FAF2E972F965FAF2F97F7
:1057E0000E94123760962FAD60972D963FAD2D9792
:1057F0002E964FAD2E972F965FAD2F970E94C938EA
:105800000E94A8396093510370935203809353030D
:105810009093540300914D0310914E0320914F0338
:10582000309150036B017C01C01AD10AE20AF30ADD
:10583000C8AAD9AAEAAAFBAA80914C03811113C075
:105840001C141D041E041F0474F4DD24D394D09290
:105850004C030E949516609348037093490380930C
:105860004A0390934B0380914C03813009F043C16C
:10587000C8A8D9A8EAA8FBA8F7FE03C010924C0359
:105880003AC10E9495160091480310914903209156
:105890004A0330914B030C591F4F2F4F3F4F0617B0
:1058A00017072807390708F026C172E0D72ED092D3
:1058B0004C0342E360E0822D0E941F1A75016401CF
:1058C0002CA93DA94EA95FA9C21AD30AE40AF50A78
:1058D0005301420188AD99ADAAADBBAD881A990AB2
:1058E000AA0ABB0AC701B6010E9412372B013C016C
:1058F000C501B4010E9412379B01AC01C301B20182
:105900000E9436392B013C01C501B40122E030E090
:1059100040E050E00E94373868AD79AD8AAD9BAD6C
:10592000620F731F841F951F0E9412374B015C0189
:10593000C701B60122E030E040E050E00E94373875
:105940006CA97DA98EA99FA9620F731F841F951F43
:105950000E9412379B01AC01C501B4010E94363987
:105960009B01AC01C301B2010E94713720E030E01D
:1059700040E450EC0E94713720E030E040ED52E40A
:105980000E94CA3860934403709345038093460392
:1059900090934703C0904003D0904103E0904203AE
:1059A000F0904303A70196010E94C9384B015C01A6
:1059B0000E94A8399B0177FF04C022273327261BAA
:1059C000370B2B303105BCF020E030E040E05FE3E6
:1059D000C501B4010E9471379B01AC01C701B6013A
:1059E0000E94CA386093400370934103809342033E
:1059F000909343036BC020E030E040EA50E4C501DF
:105A0000B4010E9436399B01AC01C701B6010E9466
:105A1000CA386B017C01609340037093410380930B
:105A200042039093430320E030E04AEA52E40E94AC
:105A3000DE3918160CF04AC020E030E048EC52E4A1
:105A4000C701B6010E940B3787FF40C01CA21BA2F2
:105A50001EA21DA218A61FA28E010F5F1F4F22E0DB
:105A600044E0C701B6010E940F34BC01CE01839609
:105A70000E94B81462EE71E0CE0189960E941B1557
:105A8000BE016D5D7F4FCE0189960E94461468EE7F
:105A900071E00E942D14BC01C8010E9401156D81A6
:105AA0007E816F5F7F4FC8010E94480F40E068E32E
:105AB00086E40E94F10DC8010E94CF14CE018996A0
:105AC0000E94CF14CE0183960E94CF14812C912C7A
:105AD0005401412C512C320160EEC62E63E9D62EC2
